:100000000C945A000C9477000C9477000C947700B1
:100010000C9477000C9477000C9477000C94770084
:100020000C9477000C9477000C94D1020C94770018
:100030000C9477000C9477000C9477000C94770064
:100040000C9477000C9477000C9477000C94770054
:100050000C9477001002240238024C0274026002F1
:100060000302030203020302030203020302030268
:100070000302030288028D0292029702A3029C02ED
:100080000302030203020302030203020302030248
:1000900003020302A802AD02B202B702C302BC020D
:1000A0000302030203020302030203020302030228
:1000B0000302C80211241FBECFE5D8E0DEBFCDBFCA
:1000C00010E0A0E6B0E0E6E6F9E002C005900D928F
:1000D000A236B107D9F720E0A2E6B0E001C01D9238
:1000E000A636B207E1F70E94E4010C94B1040C9427
:1000F000000087B1806487B987B1806887B986B10D
:10010000806886B986B1846086B986B1826086B916
:10011000089586B1806486B9349BFECF86B1806134
:1001200086B924B185B190E0982F8827822B089555
:10013000823419F118F4813439F008958334B1F11F
:10014000843409F44CC00895413059F42AB381E055
:1001500090E002C0880F991F6A95E2F7822B8ABB54
:1001600008952AB381E090E002C0880F991F6A9534
:10017000E2F7809582238ABB0895413059F427B372
:1001800081E090E002C0880F991F6A95E2F7822B08
:1001900087BB089527B381E090E002C0880F991FC4
:1001A0006A95E2F78095822387BB0895413059F420
:1001B00024B381E090E002C0880F991F6A95E2F7AE
:1001C000822B84BB089524B381E090E002C0880FA5
:1001D000991F6A95E2F78095822384BB0895413088
:1001E00059F421B381E090E002C0880F991F6A950D
:1001F000E2F7822B81BB089521B381E090E002C039
:10020000880F991F6A95E2F78095822381BB089534
:10021000823419F118F4813439F008958334B1F13E
:10022000843409F44CC00895413059F42BB381E073
:1002300090E002C0880F991F6A95E2F7822B8BBB72
:1002400008952BB381E090E002C0880F991F6A9552
:10025000E2F7809582238BBB0895413059F428B38F
:1002600081E090E002C0880F991F6A95E2F7822B27
:1002700088BB089528B381E090E002C0880F991FE1
:100280006A95E2F78095822388BB0895413059F43E
:1002900025B381E090E002C0880F991F6A95E2F7CC
:1002A000822B85BB089525B381E090E002C0880FC2
:1002B000991F6A95E2F78095822385BB08954130A6
:1002C00059F422B381E090E002C0880F991F6A952B
:1002D000E2F7822B82BB089522B381E090E002C056
:1002E000880F991F6A95E2F78095822382BB089553
:1002F0008234E9F018F4813431F055C0833459F177
:100300008434E9F150C049B381E090E09C01062EAD
:1003100002C0220F331F0A94E2F7842F90E0822359
:10032000932302C0959587956A95E2F7089546B3A1
:1003300081E090E09C01062E02C0220F331F0A9438
:10034000E2F7842F90E08223932302C0959587954E
:100350006A95E2F7089543B381E090E09C01062E90
:1003600002C0220F331F0A94E2F7842F90E0822309
:10037000932302C0959587956A95E2F7089540B357
:1003800081E090E09C01062E02C0220F331F0A94E8
:10039000E2F7842F90E08223932302C095958795FE
:1003A0006A95E2F7089580E0089541E00E94980080
:1003B000089541E00E940801089540E00E9408016C
:1003C00008950E94780108950E9479000E946103B7
:1003D0000E94550362E084E40E94D50163E084E456
:1003E0000E94D50164E084E40E94D50165E084E4C4
:1003F0000E94D50166E084E40E94D50167E084E4B0
:100400000E94D501CFEF8FEF0E945C0390E0FC01CA
:100410007197E033F105B8F7E65DFF4F0C94AB043C
:1004200064E084E40E94E101882339F064E084E41C
:100430000E94E101813021F402C0C0E001C0C1E0AE
:100440008C2F0E945C03DFCF65E084E40E94E10111
:10045000882339F065E084E40E94E101813021F4D1
:1004600002C0C0E001C0C1E08C2F0E945C03CBCF72
:1004700066E084E40E94E101882339F066E084E4C8
:100480000E94E101813021F402C0C0E001C0C1E05E
:100490008C2F0E945C03B7CF67E084E40E94E101E7
:1004A000882339F067E084E40E94E101813021F47F
:1004B00002C0C0E001C0C1E08C2F0E945C03A3CF4A
:1004C00062E084E40E94E101882339F062E084E480
:1004D0000E94E101813021F402C0C0E001C0C1E00E
:1004E0008C2F0E945C038FCF63E084E40E94E101C3
:1004F000882339F063E084E40E94E101813021F433
:1005000002C0C0E001C0C1E08C2F0E945C037BCF21
:1005100064E084E40E94D90176CF65E084E40E941F
:10052000D90171CF66E084E40E94D9016CCF67E005
:1005300084E40E94D90167CF0E94610362E084E4F1
:100540000E94D90160CF63E084E40E94D9015BCFAF
:1005500064E084E40E94DD0156CF65E084E40E94FB
:10056000DD0151CF66E084E40E94DD014CCF67E0FD
:1005700084E40E94DD0147CF0E94770362E084E4B7
:100580000E94DD0140CF63E084E40E94DD013BCFA7
:100590008FEF0E945C0390E0909361008093600075
:1005A00032CF1F920F920FB60F9211242F933F93C9
:1005B0004F935F936F937F938F939F93AF93BF936B
:1005C000EF93FF93809163008F5F8093630080912E
:1005D00063008A3008F458C0109263000E948900BA
:1005E000BC0180E090E00E94B00320E030E040E8F1
:1005F0005EE30E943E040E94810370936500609355
:1006000064008091600090916100019620916400E7
:10061000309165002817390740F062E084E40E94B9
:10062000D90181E0809362002FC080916000909199
:100630006100019720916400309165008217930753
:1006400038F062E084E40E94DD01109262001CC078
:10065000209160003091610080916400909165006C
:100660002817390789F480916200813029F462E00B
:1006700084E40E94D90108C080916200811104C005
:1006800062E084E40E94DD01FF91EF91BF91AF91A0
:100690009F918F917F916F915F914F913F912F919A
:1006A0000F900FBE0F901F90189587B3806487BB83
:1006B0008DB180648DB908958FB9779BFECF8FB1CE
:1006C00008958EE48CBF83B7886083BF83B78F7B28
:1006D00083BF83B7816083BF83B78D7F83BF83B7B9
:1006E000846083BF789489B7826089BF089583B797
:1006F0008E7F83BF83B78D7F83BF83B78B7F83BF9D
:1007000008950E941D0488F09F5798F0B92F9927EB
:10071000B751B0F0E1F0660F771F881F991F1AF0EC
:10072000BA95C9F714C0B13091F00E943704B1E016
:1007300008950C943704672F782F8827B85F39F015
:10074000B93FCCF3869577956795B395D9F73EF485
:1007500090958095709561957F4F8F4F9F4F08952D
:10076000E89409C097FB3EF490958095709561954B
:100770007F4F8F4F9F4F9923A9F0F92F96E9BB2701
:100780009395F695879577956795B795F111F8CF7D
:10079000FAF4BB0F11F460FF1BC06F5F7F4F8F4FE8
:1007A0009F4F16C0882311F096E911C0772321F0DE
:1007B0009EE8872F762F05C0662371F096E8862F76
:1007C00070E060E02AF09A95660F771F881FDAF7CD
:1007D000880F9695879597F9089597F99F6780E810
:1007E00070E060E008959FEF80EC089500240A9483
:1007F0001616170618060906089500240A941216FC
:100800001306140605060895092E0394000C11F42E
:10081000882352F0BB0F40F4BF2B11F460FF04C0DB
:100820006F5F7F4F8F4F9F4F089557FD9058440F34
:10083000551F59F05F3F71F04795880F97FB991F3F
:1008400061F09F3F79F087950895121613061406FC
:10085000551FF2CF4695F1DF08C016161706180689
:10086000991FF1CF86957105610508940895E89464
:10087000BB2766277727CB0197F908950E9451047B
:100880000C9404040E94F60338F00E94FD0320F04B
:10089000952311F00C94ED030C94F30311240C94A4
:1008A00038040E94150470F3959FC1F3950F50E032
:1008B000551F629FF001729FBB27F00DB11D639F12
:1008C000AA27F00DB11DAA1F649F6627B00DA11DB8
:1008D000661F829F2227B00DA11D621F739FB00D5E
:1008E000A11D621F839FA00D611D221F749F3327CE
:1008F000A00D611D231F849F600D211D822F762F67
:100900006A2F11249F5750409AF0F1F088234AF043
:10091000EE0FFF1FBB1F661F771F881F91505040AF
:10092000A9F79E3F510580F00C94ED030C94380418
:100930005F3FE4F3983ED4F3869577956795B79536
:10094000F795E7959F5FC1F7FE2B880F911D969550
:10095000879597F90895EE0FFF1F0590F491E02D0C
:060960000994F894FFCF9A
:02096600180077
:00000001FF
