:100000000C9434000C9451000C9451000C94510049
:100010000C9451000C9451000C9451000C9451001C
:100020000C9451000C9451000C94C5080C94510090
:100030000C9451000C9451000C9451000C945100FC
:100040000C9451000C9451000C9451000C945100EC
:100050000C945100E7064B07E407EB07F207F9079A
:1000600003089A070B08A40811241FBECFE5D8E0A7
:10007000DEBFCDBF12E0A0E6B0E0EEEFF3E102C0DC
:1000800005900D92AA38B107D9F722E0AAE8B2E0AC
:1000900001C01D92AD38B207E1F70E94D7030C945E
:1000A000FD090C940000823419F118F4813439F000
:1000B00008958334B1F1843409F44CC0089541307B
:1000C00059F42AB381E090E002C0880F991F6A9525
:1000D000E2F7822B8ABB08952AB381E090E002C048
:1000E000880F991F6A95E2F7809582238ABB08954D
:1000F000413059F427B381E090E002C0880F991F86
:100100006A95E2F7822B87BB089527B381E090E0E0
:1001100002C0880F991F6A95E2F78095822387BBFA
:100120000895413059F424B381E090E002C0880F73
:10013000991F6A95E2F7822B84BB089524B381E06E
:1001400090E002C0880F991F6A95E2F7809582239C
:1001500084BB0895413059F421B381E090E002C09E
:10016000880F991F6A95E2F7822B81BB089521B30E
:1001700081E090E002C0880F991F6A95E2F78095B0
:10018000822381BB0895823419F118F4813439F047
:1001900008958334B1F1843409F44CC0089541309A
:1001A00059F42BB381E090E002C0880F991F6A9543
:1001B000E2F7822B8BBB08952BB381E090E002C065
:1001C000880F991F6A95E2F7809582238BBB08956B
:1001D000413059F428B381E090E002C0880F991FA4
:1001E0006A95E2F7822B88BB089528B381E090E0FE
:1001F00002C0880F991F6A95E2F78095822388BB19
:100200000895413059F425B381E090E002C0880F91
:10021000991F6A95E2F7822B85BB089525B381E08B
:1002200090E002C0880F991F6A95E2F780958223BB
:1002300085BB0895413059F422B381E090E002C0BB
:10024000880F991F6A95E2F7822B82BB089522B32B
:1002500081E090E002C0880F991F6A95E2F78095CF
:10026000822382BB08958234E9F018F4813431F09E
:1002700055C0833459F18434E9F150C049B381E069
:1002800090E09C01062E02C0220F331F0A94E2F771
:10029000842F90E08223932302C0959587956A95D9
:1002A000E2F7089546B381E090E09C01062E02C07B
:1002B000220F331F0A94E2F7842F90E082239323C6
:1002C00002C0959587956A95E2F7089543B381E05A
:1002D00090E09C01062E02C0220F331F0A94E2F721
:1002E000842F90E08223932302C0959587956A9589
:1002F000E2F7089540B381E090E09C01062E02C031
:10030000220F331F0A94E2F7842F90E08223932375
:1003100002C0959587956A95E2F7089580E0089563
:10032000823459F018F4813431F00895833439F06F
:10033000843439F008956BBB089568BB089565BB9C
:10034000089562BB0895823461F118F4813441F05C
:100350000895833409F446C0843409F464C00895D0
:10036000413099F480B78B7F80BF2AB381E090E061
:1003700002C0880F991F6A95E2F7982F90959223F3
:100380009ABB9BB3892B8BBB08952BB381E090E084
:1003900002C0880F991F6A95E2F7809582238BBB74
:1003A0000895413099F480B78B7F80BF27B381E0F7
:1003B00090E002C0880F991F6A95E2F7982F9095F8
:1003C000922397BB98B3892B88BB089528B381E00B
:1003D00090E002C0880F991F6A95E2F7809582230A
:1003E00088BB0895413099F480B78B7F80BF24B3D8
:1003F00081E090E002C0880F991F6A95E2F7982F7C
:100400009095922394BB95B3892B85BB089525B312
:1004100081E090E002C0880F991F6A95E2F780950D
:10042000822385BB0895413099F480B78B7F80BFCC
:1004300021B381E090E002C0880F991F6A95E2F72E
:10044000982F9095922391BB92B3892B82BB0895EC
:1004500022B381E090E002C0880F991F6A95E2F70D
:100460008095822382BB0895E199FECF9FBB8EBB0E
:100470008CB381608CBB8DB30895DC01E199FECF14
:1004800020E030E00FC0F901EA0FFB1FFFBBEEBB1D
:100490009CB391609CBBFB01E20FF31F9DB3908363
:1004A0002F5F3F4F2417350770F30895E199FECF72
:1004B0009FBB8EBB8CB381608CBB8DB3861739F02C
:1004C0006DBB8CB384608CBB8CB382608CBB089595
:1004D000CF93DF93DC01EA0120E030E01AC0E1991C
:1004E000FECFC9018A0F9B1F9FBB8EBB9CB391603F
:1004F0009CBB5DB3FB01E20FF31F9081591739F0EC
:100500009DBB9CB394609CBB9CB392609CBB2F5FD3
:100510003F4F2C173D0718F3DF91CF91089541E02D
:1005200060E084E40E94530041E061E084E40E94C2
:10053000530041E062E084E40E94530041E063E044
:1005400084E40E94530040E064E084E40E9453008D
:1005500040E065E084E40E94530040E066E084E40B
:100560000E94530040E067E084E40E94530041E0B1
:1005700064E084E40E94A30141E065E084E40E9419
:10058000A30141E066E084E40E94A30141E067E04A
:1005900084E40E94A3010895FF920F931F93CF93C9
:1005A000DF93CDB7DEB760970FB6F894DEBF0FBE0E
:1005B000CDBF80E1E0E6F0E0DE01119601900D9202
:1005C0008A95E1F7FF24FA9400E03CC041E060E046
:1005D00084E40E94C30041E061E084E40E94C3001F
:1005E00041E062E084E40E94C30041E063E084E40F
:1005F0000E94C3008FE39CE90197F1F700C000005F
:1006000040E0602F84E40E94C30010E018C064E062
:10061000610F84E40E943301811110C0E02FF0E0EB
:10062000EE0FFF1FEE0FFF1F81E090E08C0F9D1F6C
:10063000E80FF91FE10FF11DF08003C01F5F1430B8
:1006400030F30F5F043010F28F2D60960FB6F894E0
:10065000DEBF0FBECDBFDF91CF911F910F91FF90F5
:10066000089541E060E082E40E94C3008FE99FE0CA
:100670000197F1F700C0000040E060E082E40E94D2
:10068000C3008FE99FE00197F1F700C000000895D3
:10069000682F81E40E94900140E061E082E40E94C2
:1006A000C3000E943103089541E060E081E40E94AC
:1006B000530041E061E081E40E94530041E062E0C8
:1006C00081E40E94530041E063E081E40E94530012
:1006D00041E064E081E40E94530041E065E081E490
:1006E0000E94530041E066E081E40E94530041E033
:1006F00067E081E40E94530041E060E082E40E94F0
:10070000530041E062E082E40E94530041E061E076
:1007100082E40E94530040E062E082E40E94C30051
:1007200088E30E94480381E00E9448038EE00E9413
:1007300048038FE19EE40197F1F700C0000008959F
:10074000682F81E40E94900141E061E082E40E9410
:10075000C3000E9431030895CF93DF93EC0103C0DF
:100760000E94A003219688818111FACFDF91CF9159
:10077000089581E00E9448030895813019F48FE7BD
:10078000860F06C0823019F48FEB860F01C080E817
:100790000E944803089541E00E945300089541E0FB
:1007A0000E94C300089540E00E94C3000895CF93C3
:1007B000DF93CDB7DEB728970FB6F894DEBF0FBE34
:1007C000CDBF60E083E40E94CB0361E083E40E943C
:1007D000CB0362E083E40E94CB030E9454030E9497
:1007E0008F020E94CB0980E790E00E94AC0361E099
:1007F00082E00E94BD0381E890E00E94AC032FEFED
:1008000039E688E1215030408040E1F700C0000027
:100810000E94B90380E091E00E943402813039F4F3
:1008200081E091E00E943402813009F4D5C08DE866
:1008300090E00E94AC0361E082E00E94BD0387E982
:1008400090E00E94AC039FEF29E638E191502040F0
:100850003040E1F700C000000E94B90382EA90E056
:100860000E94AC0361E082E00E94BD0381EB90E056
:100870000E94AC038FEF89838A838B838C8310E083
:100880002AC00E94CC0201C08FEF8F3FD1F3E1E07C
:10089000F0E0EC0FFD1FE10FF11D80830E94A0032B
:1008A0008FEF92E527E0815090402040E1F700C0B3
:1008B00000006CE0610F82E00E94BD038AE20E94AA
:1008C000A0033FEF80E792E0315080409040E1F795
:1008D00000C000001F5F1430B8F244E050E0BE01D9
:1008E0006F5F7F4F82E091E00E94680261E080E0EC
:1008F00091E00E9456020E94B9038DEB90E00E94A5
:10090000AC032FEF34E38CE0215030408040E1F71E
:1009100000C000000E94B90388EC90E00E94AC0384
:1009200061E082E00E94BD0387ED90E00E94AC038D
:1009300010E02AC00E94CC0201C08FEF8F3FD1F39C
:10094000E1E0F0E0EC0FFD1FE10FF11D80830E945C
:10095000A0039FEF22E537E0915020403040E1F7BF
:1009600000C000006CE0610F82E00E94BD038AE2DB
:100970000E94A0038FEF90E722E08150904020403A
:10098000E1F700C000001F5F1430B8F244E050E00F
:10099000BE016F5F7F4F86E091E00E94680261E0D8
:1009A00081E091E00E9456020E94B9038DEB90E035
:1009B0000E94AC033FEF84E39CE0315080409040C4
:1009C000E1F700C000000E94B90360E08AE091E016
:1009D0000E945602F12C05C08AE091E00E94340288
:1009E000F82E00E080918A02813001F50E94ED0925
:1009F00010928C0210928B0210928A0261E083E4C2
:100A00000E94D30360E083E40E94D3030E94B903F1
:100A100083EE90E00E94AC032FEF39E688E121508D
:100A200030408040E1F700C0000000E0E12C1FEF03
:100A3000BCC191E0F91227C00E94B90383EF90E096
:100A40000E94AC0361E082E00E94BD0381E091E07E
:100A50000E94AC0362E083E40E94CF032AEA36EEF0
:100A600086E991E02150304080409040D9F7000065
:100A700062E083E40E94D30360E08AE091E00E9498
:100A80005602E12CF12C0E94B90381E191E00E9411
:100A9000AC0361E082E00E94BD038FE191E00E941F
:100AA000AC0303C00E94CC02182F1F3FD9F380ED86
:100AB000810F823088F00E94B9038FE291E00E949A
:100AC000AC032FEF39E688E1215030408040E1F758
:100AD00000C000001FEF69C18FEF8D838E838F836D
:100AE000888789838A838B838C83103309F4ABC016
:100AF000113309F455C159C10E94B9038CE391E047
:100B00000E94AC0361E082E00E94BD0387E491E0B3
:100B10000E94AC039FEF21EE34E091502040304022
:100B2000E1F700C0000010E02AC00E94CC0201C022
:100B30008FEF8F3FD1F3E5E0F0E0EC0FFD1FE10F09
:100B4000F11D80830E94A0038FEF92E527E0815082
:100B500090402040E1F700C000006CE0610F82E0AF
:100B60000E94BD038AE20E94A0033FEF80E792E06B
:100B7000315080409040E1F700C000001F5F14300A
:100B8000B8F244E050E0BE016F5F7F4F82E091E039
:100B90000E943D0244E0BE016F5F7F4FCE0105968B
:100BA0000E94DC08813011F50E94B90383E591E0D1
:100BB0000E94AC0361E082E00E94BD038CE391E0FF
:100BC0000E94AC032FEF34E38CE021503040804092
:100BD000E1F700C0000060E083E40E94CF030E94C0
:100BE000D7090E94B903E12C81E02BC0E3940E9455
:100BF000B9038EE591E00E94AC0361E082E00E94BF
:100C0000BD0389E691E00E94AC0383E38E190E9444
:100C1000A0039FEF29E638E1915020403040E1F7F2
:100C200000C000000E94B90382E08E1548F461E024
:100C30008AE091E00E9456021FEFFF24F394B5C0B2
:100C4000802F1FEF01C0802F813009F055CF082F72
:100C5000ACC00E94B90385E791E00E94AC0361E05B
:100C600082E00E94BD0380E891E00E94AC039FEF08
:100C700021EE34E0915020403040E1F700C0000008
:100C800010E02AC00E94CC0201C08FEF8F3FD1F349
:100C9000E5E0F0E0EC0FFD1FE10FF11D80830E9405
:100CA000A0038FEF92E527E0815090402040E1F7CC
:100CB00000C000006CE0610F82E00E94BD038AE288
:100CC0000E94A0033FEF80E792E0315080409040C7
:100CD000E1F700C000001F5F1430B8F244E050E0BC
:100CE000BE016F5F7F4F86E091E00E943D0244E0CD
:100CF000BE016F5F7F4FCE0105960E94DC088130F8
:100D000011F50E94B90383E591E00E94AC0361E014
:100D100082E00E94BD0385E791E00E94AC032FEFC3
:100D200034E38CE0215030408040E1F700C0000007
:100D300061E083E40E94CF030E94D7090E94B903B7
:100D4000E12C82E02BC0E3940E94B9038CE891E08F
:100D50000E94AC0361E082E00E94BD0389E691E05D
:100D60000E94AC0383E38E190E94A0039FEF29E643
:100D700038E1915020403040E1F700C000000E946F
:100D8000B90382E08E1548F461E08AE091E00E94A8
:100D900056021FEFFF24F39408C0802F1FEF01C0FD
:100DA000802F823009F055CF082F002309F441CE5F
:100DB000EE24E394E4C18E2D90E0FC013197EA30FB
:100DC000F10508F0DCC1E65DFF4F0C94F7090E94C5
:100DD000B90387E991E00E94AC0361E082E00E94E0
:100DE000BD03013029F487EA91E00E94AC0306C0FC
:100DF000023021F487EB91E00E94AC03802F0E9427
:100E0000F208182F9FEF20E732E091502040304049
:100E1000E1F700C000008133F1F0823309F1833340
:100E200019F1843311F4023021F1143311F401303B
:100E300029F11F3F31F10E94B90387EC91E00E9434
:100E4000AC038FEF94E32CE0815090402040E1F719
:100E500000C0000016C00F2EF3E0EF2EF02D11C0E1
:100E60006894EE24E2F80DC00F2EF5E0EF2EF02D81
:100E700008C00F2EF6E0EF2EF02D03C06894EE248C
:100E8000E1F81153143008F47AC180918A02882362
:100E900009F49DCF74C10E94B90383ED91E00E94D3
:100EA000AC0361E082E00E94BD0386EE91E00E9407
:100EB000AC03802F0E94F208182F3FEF80E792E0EA
:100EC000315080409040E1F700C000001133C1F084
:100ED0001233D9F01333F1F0143301F11F3F01F154
:100EE0000E94B90387EC91E00E94AC032FEF34E33A
:100EF0008CE0215030408040E1F700C0000010C07D
:100F00000F2EF6E0EF2EF02D0BC00F2EF7E0EF2E98
:100F1000F02D06C06894EE24E3F802C0EE24E394BA
:100F20001153143008F42BC180918A02882309F4EC
:100F3000B2CF25C10E94B90387EF91E00E94AC03B4
:100F400061E082E00E94BD038AE092E00E94AC036F
:100F5000802F0E94F208182F9FEF20E732E0915077
:100F600020403040E1F700C000008133B1F082330F
:100F7000C9F08033E1F08F3FE9F00E94B90387ECBC
:100F800091E00E94AC038FEF94E32CE081509040FD
:100F90002040E1F700C000000DC00F2EFAE0EF2E58
:100FA000F02D08C00F2EF9E0EF2EF02D03C068944D
:100FB000EE24E1F81053133008F4E1C080918A0266
:100FC000882309F4B7CFDBC0602F83E00E941209A9
:100FD000EE24E394D4C0602F84E00E941209EE2432
:100FE000E394CDC0602F85E00E941209EE24E394C3
:100FF000C6C0602F86E00E941209023009F0B0C01E
:10100000EE24E394BCC0602F87E00E94120968942C
:10101000EE24E1F8B4C0602F89E00E9412096894C0
:10102000EE24E3F8ACC00E94B9038BE192E00E9489
:10103000AC038FED0E94A00383E40E94A0036BE049
:1010400081E00E94BD033FEF81EE94E0315080408B
:101050009040E1F700C00000802F0E94F2082FE7C7
:101060003AE196E0215030409040E1F700C00000A6
:1010700090918A02913009F477C010ED180F1A3060
:1010800080F00E94B90387EC91E00E94AC032FEF3F
:1010900034E38CE0215030408040E1F700C0000094
:1010A00054C00E94A003802F0E94F2089FE72AE10B
:1010B00036E0915020403040E1F700C000009091B0
:1010C0008A02913009F454C00F2EF0EDDF2EF02D7E
:1010D000D80E99E09D1580F40E94B90387EC91E049
:1010E0000E94AC032FEF34E38CE02150304080406D
:1010F000E1F700C0000029C00E94A003110FE12EFB
:10110000EE0CEE0C1E0DE12EED0C80E40E94D209D7
:101110009FEF21EE34E0915020403040E1F700C0D5
:1011200000008E2D0E94D2090E94B90389E292E04C
:101130000E94AC038FEF94E32CE08150904020405C
:10114000E1F700C0000001C0E12CE11015C0809162
:101150008A02882309F467CF6894EE24E3F80FC06D
:101160006894EE24E1F80BC06894EE24E3F807C01D
:101170006894EE24E3F803C06894EE24E3F88091C9
:101180008A02813009F017CE2DCC1F920F920FB634
:101190000F9211248F939F9380918B0290918C02D8
:1011A000019690938C0280938B029F918F910F9068
:1011B0000FBE0F901F901895DC0190E00DC0292FF5
:1011C00030E0FD01E20FF31F5081FB01E20FF31F3E
:1011D0002081521305C09F5F941788F381E0089522
:1011E00080E00895CF93C82F8FEF18C020918B0215
:1011F00030918C02283B3B4010F0C13049F02091E7
:101200008B0230918C02203D374030F0C23021F407
:1012100091E090938A0204C00E94CC028F3F31F388
:10122000CF910895EF92FF920F931F93CF93DF9387
:10123000D82FF62EE12C00E010E00E94B903D53043
:1012400011F128F4D33049F0D43091F047C0D730B1
:1012500081F120F1D930C1F141C08AE392E00E94CE
:10126000AC030F2EF1E3EF2EF02D01E211E136C0B9
:1012700083E492E00E94AC030F2EF2E3EF2EF02DF8
:1012800002E212E12BC08CE492E00E94AC030F2E2C
:10129000F3E3EF2EF02D03E213E120C085E592E0A9
:1012A0000E94AC030F2EF4E3EF2EF02D04E214E1C4
:1012B00015C08EE592E00E94AC030F2EF5E3EF2EF1
:1012C000F02D05E215E10AC084E692E00E94AC032D
:1012D0000F2EF6E3EF2EF02D06E216E1812F0E948D
:1012E000D2092FEF80E792E0215080409040E1F753
:1012F00000C000008FEF0E94D209813029F481E7FD
:1013000092E00E94AC0304C084E792E00E94AC0328
:1013100061E082E00E94BD0388E792E00E94AC0396
:101320008F2D0E94F208C82F2FEF80E792E0215006
:1013300080409040E1F700C00000C13321F4802FCD
:101340000E94D20919C0C23321F48E2D0E94D20905
:1013500013C0CF3F89F0C03379F00E94B90387EC06
:1013600091E00E94AC032FEF84E39CE02150804089
:101370009040E1F700C00000C053C33028F08091D6
:101380008A02882309F459CFDF91CF911F910F91E1
:10139000FF90EF90089587B3806B87BB8DB1816517
:1013A0008DB908958FB9779BFECF8FB108958EE4E4
:1013B0008CBF83B7886083BF83B78F7B83BF83B7BE
:1013C000816083BF83B78D7F83BF83B7846083BF12
:1013D000789489B7826089BF089583B78E7F83BF71
:1013E00083B78D7F83BF83B78B7F83BF0895EE0F55
:0E13F000FF1F0590F491E02D0994F894FFCFB3
:1013FE003738392F3435362A3132332D41303D2BA3
:10140E0057656C636F6D6520746F20736D617274B8
:10141E0000686F6D652073797374656D004C6F672E
:10142E00696E20666F720066697273742074696DDE
:10143E0065005365742041646D696E20706173732D
:10144E000041646D696E20706173733A0050617370
:10145E007320536176656400536574204775657318
:10146E0074205061737300477565737420506173F7
:10147E00733A0053657373696F6E2054696D656FAF
:10148E007574004C6F67696E20626C6F636B656478
:10149E000077616974203230207365636F6E6473F8
:1014AE000053656C656374206D6F6465203A00307F
:1014BE003A41646D696E20313A4775657374005711
:1014CE00726F6E6720696E7075742E0041646D695F
:1014DE006E206D6F646500456E7465722050617389
:1014EE00733A0052696768742070617373005772A3
:1014FE006F6E672050617373005472696573206C50
:10150E006566743A004775657374206D6F64650087
:10151E00456E74657220706173733A0057726F6E08
:10152E0067207061737300313A526F6F6D312032E4
:10153E003A526F6F6D3200333A526F6F6D33203403
:10154E003A4D6F72652000333A526F6F6D3320340F
:10155E003A526F6F6D340057726F6E6720696E70FE
:10156E00757400313A526F6F6D3420202020323A5C
:10157E00545620202000333A41697220436F6E6426
:10158E002E343A52455400313A5365742074656DC9
:10159E0070657261747572652000323A436F6E74B5
:1015AE00726F6C2020303A5245540053657420748B
:1015BE00656D702E3A5F5F200054656D70657261C7
:1015CE00747572652053656E7400526F6F6D3120A5
:1015DE00533A00526F6F6D3220533A00526F6F6D57
:1015EE003320533A00526F6F6D3420533A005456E5
:1015FE0020533A0041697220436F6E642E20533A95
:10160E00004F4E004F464600312D4F6E20322D4F6B
:0A161E00666620302D52455400008E
:00000001FF
